{
  "_format": "hh-sol-artifact-1",
  "contractName": "DonationCampaign",
  "sourceName": "contracts/DonationCampaign.sol",
  "abi": [
    {
      "inputs": [],
      "stateMutability": "nonpayable",
      "type": "constructor"
    },
    {
      "anonymous": false,
      "inputs": [
        {
          "indexed": true,
          "internalType": "uint256",
          "name": "campaignId",
          "type": "uint256"
        },
        {
          "indexed": false,
          "internalType": "bool",
          "name": "isApproved",
          "type": "bool"
        }
      ],
      "name": "CampaignApproved",
      "type": "event"
    },
    {
      "anonymous": false,
      "inputs": [
        {
          "indexed": true,
          "internalType": "uint256",
          "name": "campaignId",
          "type": "uint256"
        },
        {
          "indexed": false,
          "internalType": "bool",
          "name": "success",
          "type": "bool"
        }
      ],
      "name": "CampaignClosed",
      "type": "event"
    },
    {
      "anonymous": false,
      "inputs": [
        {
          "indexed": true,
          "internalType": "uint256",
          "name": "campaignId",
          "type": "uint256"
        },
        {
          "indexed": true,
          "internalType": "address",
          "name": "owner",
          "type": "address"
        },
        {
          "indexed": false,
          "internalType": "string",
          "name": "title",
          "type": "string"
        },
        {
          "indexed": false,
          "internalType": "uint256",
          "name": "fundingGoal",
          "type": "uint256"
        }
      ],
      "name": "CampaignCreated",
      "type": "event"
    },
    {
      "anonymous": false,
      "inputs": [
        {
          "indexed": true,
          "internalType": "uint256",
          "name": "campaignId",
          "type": "uint256"
        },
        {
          "indexed": true,
          "internalType": "address",
          "name": "donor",
          "type": "address"
        },
        {
          "indexed": false,
          "internalType": "uint256",
          "name": "amount",
          "type": "uint256"
        },
        {
          "indexed": false,
          "internalType": "uint256",
          "name": "timestamp",
          "type": "uint256"
        }
      ],
      "name": "DonationReceived",
      "type": "event"
    },
    {
      "anonymous": false,
      "inputs": [
        {
          "indexed": true,
          "internalType": "uint256",
          "name": "campaignId",
          "type": "uint256"
        },
        {
          "indexed": true,
          "internalType": "address",
          "name": "recipient",
          "type": "address"
        },
        {
          "indexed": false,
          "internalType": "uint256",
          "name": "amount",
          "type": "uint256"
        }
      ],
      "name": "FundsWithdrawn",
      "type": "event"
    },
    {
      "inputs": [],
      "name": "admin",
      "outputs": [
        {
          "internalType": "address",
          "name": "",
          "type": "address"
        }
      ],
      "stateMutability": "view",
      "type": "function"
    },
    {
      "inputs": [
        {
          "internalType": "uint256",
          "name": "_campaignId",
          "type": "uint256"
        },
        {
          "internalType": "bool",
          "name": "_isApproved",
          "type": "bool"
        }
      ],
      "name": "approveCampaign",
      "outputs": [],
      "stateMutability": "nonpayable",
      "type": "function"
    },
    {
      "inputs": [],
      "name": "campaignCount",
      "outputs": [
        {
          "internalType": "uint256",
          "name": "",
          "type": "uint256"
        }
      ],
      "stateMutability": "view",
      "type": "function"
    },
    {
      "inputs": [
        {
          "internalType": "uint256",
          "name": "",
          "type": "uint256"
        },
        {
          "internalType": "uint256",
          "name": "",
          "type": "uint256"
        }
      ],
      "name": "campaignDonations",
      "outputs": [
        {
          "internalType": "address",
          "name": "donor",
          "type": "address"
        },
        {
          "internalType": "uint256",
          "name": "campaignId",
          "type": "uint256"
        },
        {
          "internalType": "uint256",
          "name": "amount",
          "type": "uint256"
        },
        {
          "internalType": "uint256",
          "name": "timestamp",
          "type": "uint256"
        }
      ],
      "stateMutability": "view",
      "type": "function"
    },
    {
      "inputs": [
        {
          "internalType": "uint256",
          "name": "",
          "type": "uint256"
        }
      ],
      "name": "campaigns",
      "outputs": [
        {
          "internalType": "uint256",
          "name": "id",
          "type": "uint256"
        },
        {
          "internalType": "address",
          "name": "owner",
          "type": "address"
        },
        {
          "internalType": "string",
          "name": "title",
          "type": "string"
        },
        {
          "internalType": "string",
          "name": "description",
          "type": "string"
        },
        {
          "internalType": "uint256",
          "name": "fundingGoal",
          "type": "uint256"
        },
        {
          "internalType": "uint256",
          "name": "amountRaised",
          "type": "uint256"
        },
        {
          "internalType": "uint256",
          "name": "deadline",
          "type": "uint256"
        },
        {
          "internalType": "bool",
          "name": "isApproved",
          "type": "bool"
        },
        {
          "internalType": "bool",
          "name": "isClosed",
          "type": "bool"
        }
      ],
      "stateMutability": "view",
      "type": "function"
    },
    {
      "inputs": [
        {
          "internalType": "address",
          "name": "_newAdmin",
          "type": "address"
        }
      ],
      "name": "changeAdmin",
      "outputs": [],
      "stateMutability": "nonpayable",
      "type": "function"
    },
    {
      "inputs": [
        {
          "internalType": "uint256",
          "name": "_campaignId",
          "type": "uint256"
        }
      ],
      "name": "closeCampaign",
      "outputs": [],
      "stateMutability": "nonpayable",
      "type": "function"
    },
    {
      "inputs": [
        {
          "internalType": "string",
          "name": "_title",
          "type": "string"
        },
        {
          "internalType": "string",
          "name": "_description",
          "type": "string"
        },
        {
          "internalType": "uint256",
          "name": "_fundingGoal",
          "type": "uint256"
        },
        {
          "internalType": "uint256",
          "name": "_durationInDays",
          "type": "uint256"
        }
      ],
      "name": "createCampaign",
      "outputs": [],
      "stateMutability": "nonpayable",
      "type": "function"
    },
    {
      "inputs": [
        {
          "internalType": "uint256",
          "name": "_campaignId",
          "type": "uint256"
        }
      ],
      "name": "donate",
      "outputs": [],
      "stateMutability": "payable",
      "type": "function"
    },
    {
      "inputs": [],
      "name": "getAllCampaigns",
      "outputs": [
        {
          "components": [
            {
              "internalType": "uint256",
              "name": "id",
              "type": "uint256"
            },
            {
              "internalType": "address",
              "name": "owner",
              "type": "address"
            },
            {
              "internalType": "string",
              "name": "title",
              "type": "string"
            },
            {
              "internalType": "string",
              "name": "description",
              "type": "string"
            },
            {
              "internalType": "uint256",
              "name": "fundingGoal",
              "type": "uint256"
            },
            {
              "internalType": "uint256",
              "name": "amountRaised",
              "type": "uint256"
            },
            {
              "internalType": "uint256",
              "name": "deadline",
              "type": "uint256"
            },
            {
              "internalType": "bool",
              "name": "isApproved",
              "type": "bool"
            },
            {
              "internalType": "bool",
              "name": "isClosed",
              "type": "bool"
            }
          ],
          "internalType": "struct DonationCampaign.Campaign[]",
          "name": "",
          "type": "tuple[]"
        }
      ],
      "stateMutability": "view",
      "type": "function"
    },
    {
      "inputs": [
        {
          "internalType": "uint256",
          "name": "_campaignId",
          "type": "uint256"
        }
      ],
      "name": "getCampaignById",
      "outputs": [
        {
          "components": [
            {
              "internalType": "uint256",
              "name": "id",
              "type": "uint256"
            },
            {
              "internalType": "address",
              "name": "owner",
              "type": "address"
            },
            {
              "internalType": "string",
              "name": "title",
              "type": "string"
            },
            {
              "internalType": "string",
              "name": "description",
              "type": "string"
            },
            {
              "internalType": "uint256",
              "name": "fundingGoal",
              "type": "uint256"
            },
            {
              "internalType": "uint256",
              "name": "amountRaised",
              "type": "uint256"
            },
            {
              "internalType": "uint256",
              "name": "deadline",
              "type": "uint256"
            },
            {
              "internalType": "bool",
              "name": "isApproved",
              "type": "bool"
            },
            {
              "internalType": "bool",
              "name": "isClosed",
              "type": "bool"
            }
          ],
          "internalType": "struct DonationCampaign.Campaign",
          "name": "",
          "type": "tuple"
        }
      ],
      "stateMutability": "view",
      "type": "function"
    },
    {
      "inputs": [
        {
          "internalType": "uint256",
          "name": "_campaignId",
          "type": "uint256"
        }
      ],
      "name": "getCampaignDonations",
      "outputs": [
        {
          "components": [
            {
              "internalType": "address",
              "name": "donor",
              "type": "address"
            },
            {
              "internalType": "uint256",
              "name": "campaignId",
              "type": "uint256"
            },
            {
              "internalType": "uint256",
              "name": "amount",
              "type": "uint256"
            },
            {
              "internalType": "uint256",
              "name": "timestamp",
              "type": "uint256"
            }
          ],
          "internalType": "struct DonationCampaign.Donation[]",
          "name": "",
          "type": "tuple[]"
        }
      ],
      "stateMutability": "view",
      "type": "function"
    },
    {
      "inputs": [
        {
          "internalType": "address",
          "name": "_donor",
          "type": "address"
        }
      ],
      "name": "getUserDonations",
      "outputs": [
        {
          "components": [
            {
              "internalType": "address",
              "name": "donor",
              "type": "address"
            },
            {
              "internalType": "uint256",
              "name": "campaignId",
              "type": "uint256"
            },
            {
              "internalType": "uint256",
              "name": "amount",
              "type": "uint256"
            },
            {
              "internalType": "uint256",
              "name": "timestamp",
              "type": "uint256"
            }
          ],
          "internalType": "struct DonationCampaign.Donation[]",
          "name": "",
          "type": "tuple[]"
        }
      ],
      "stateMutability": "view",
      "type": "function"
    },
    {
      "inputs": [
        {
          "internalType": "address",
          "name": "",
          "type": "address"
        },
        {
          "internalType": "uint256",
          "name": "",
          "type": "uint256"
        }
      ],
      "name": "userDonations",
      "outputs": [
        {
          "internalType": "address",
          "name": "donor",
          "type": "address"
        },
        {
          "internalType": "uint256",
          "name": "campaignId",
          "type": "uint256"
        },
        {
          "internalType": "uint256",
          "name": "amount",
          "type": "uint256"
        },
        {
          "internalType": "uint256",
          "name": "timestamp",
          "type": "uint256"
        }
      ],
      "stateMutability": "view",
      "type": "function"
    },
    {
      "inputs": [
        {
          "internalType": "uint256",
          "name": "_campaignId",
          "type": "uint256"
        }
      ],
      "name": "withdrawFunds",
      "outputs": [],
      "stateMutability": "nonpayable",
      "type": "function"
    }
  ],
  "bytecode": "0x608060405234801561001057600080fd5b50336000806101000a81548173ffffffffffffffffffffffffffffffffffffffff021916908373ffffffffffffffffffffffffffffffffffffffff160217905550600060018190555061316d806100686000396000f3fe6080604052600436106100e85760003560e01c806386cdf6041161008a578063e6ffcaa111610059578063e6ffcaa114610326578063e8fb4fea14610363578063f14faf6f1461038c578063f851a440146103a8576100e8565b806386cdf604146102805780638f283970146102ab578063a318f269146102d4578063b0e1c1e1146102fd576100e8565b80635167642f116100c65780635167642f1461019b57806370879ff7146101d85780637274e30d14610218578063732435b214610243576100e8565b8063141961bc146100ed578063155dd5ee146101325780634933e6311461015b575b600080fd5b3480156100f957600080fd5b50610114600480360381019061010f9190611bd1565b6103d3565b60405161012999989796959493929190611cf9565b60405180910390f35b34801561013e57600080fd5b5061015960048036038101906101549190611bd1565b61056b565b005b34801561016757600080fd5b50610182600480360381019061017d9190611dc0565b61086e565b6040516101929493929190611e00565b60405180910390f35b3480156101a757600080fd5b506101c260048036038101906101bd9190611bd1565b6108db565b6040516101cf9190611f67565b60405180910390f35b3480156101e457600080fd5b506101ff60048036038101906101fa9190611f89565b610a12565b60405161020f9493929190611e00565b60405180910390f35b34801561022457600080fd5b5061022d610a7f565b60405161023a9190611fc9565b60405180910390f35b34801561024f57600080fd5b5061026a60048036038101906102659190611fe4565b610a85565b6040516102779190611f67565b60405180910390f35b34801561028c57600080fd5b50610295610b97565b6040516102a291906121f8565b60405180910390f35b3480156102b757600080fd5b506102d260048036038101906102cd9190611fe4565b610e3f565b005b3480156102e057600080fd5b506102fb60048036038101906102f6919061234f565b610f7f565b005b34801561030957600080fd5b50610324600480360381019061031f9190611bd1565b6111e8565b005b34801561033257600080fd5b5061034d60048036038101906103489190611bd1565b6113a3565b60405161035a91906124ba565b60405180910390f35b34801561036f57600080fd5b5061038a60048036038101906103859190612508565b6115fa565b005b6103a660048036038101906103a19190611bd1565b611749565b005b3480156103b457600080fd5b506103bd611afd565b6040516103ca9190612548565b60405180910390f35b60026020528060005260406000206000915090508060000154908060010160009054906101000a900473ffffffffffffffffffffffffffffffffffffffff169080600201805461042290612592565b80601f016020809104026020016040519081016040528092919081815260200182805461044e90612592565b801561049b5780601f106104705761010080835404028352916020019161049b565b820191906000526020600020905b81548152906001019060200180831161047e57829003601f168201915b5050505050908060030180546104b090612592565b80601f01602080910402602001604051908101604052809291908181526020018280546104dc90612592565b80156105295780601f106104fe57610100808354040283529160200191610529565b820191906000526020600020905b81548152906001019060200180831161050c57829003601f168201915b5050505050908060040154908060050154908060060154908060070160009054906101000a900460ff16908060070160019054906101000a900460ff16905089565b806002600082815260200190815260200160002060010160009054906101000a900473ffffffffffffffffffffffffffffffffffffffff1673ffffffffffffffffffffffffffffffffffffffff163373ffffffffffffffffffffffffffffffffffffffff1614610610576040517f08c379a000000000000000000000000000000000000000000000000000000000815260040161060790612635565b60405180910390fd5b60006002600084815260200190815260200160002090508060070160009054906101000a900460ff16610678576040517f08c379a000000000000000000000000000000000000000000000000000000000815260040161066f906126a1565b60405180910390fd5b8060070160019054906101000a900460ff16156106ca576040517f08c379a00000000000000000000000000000000000000000000000000000000081526004016106c19061270d565b60405180910390fd5b6000816005015411610711576040517f08c379a000000000000000000000000000000000000000000000000000000000815260040161070890612779565b60405180910390fd5b6000816005015490506000826005018190555060008260010160009054906101000a900473ffffffffffffffffffffffffffffffffffffffff1673ffffffffffffffffffffffffffffffffffffffff168260405161076e906127ca565b60006040518083038185875af1925050503d80600081146107ab576040519150601f19603f3d011682016040523d82523d6000602084013e6107b0565b606091505b50509050806107f4576040517f08c379a00000000000000000000000000000000000000000000000000000000081526004016107eb9061282b565b60405180910390fd5b8260010160009054906101000a900473ffffffffffffffffffffffffffffffffffffffff1673ffffffffffffffffffffffffffffffffffffffff16857ff440aec6b52895984d061d622e6edeba6210f7c3e059be920663140c084560d78460405161085f9190611fc9565b60405180910390a35050505050565b6004602052816000526040600020818154811061088a57600080fd5b9060005260206000209060040201600091509150508060000160009054906101000a900473ffffffffffffffffffffffffffffffffffffffff16908060010154908060020154908060030154905084565b60606000821180156108ef57506001548211155b61092e576040517f08c379a000000000000000000000000000000000000000000000000000000000815260040161092590612897565b60405180910390fd5b60036000838152602001908152602001600020805480602002602001604051908101604052809291908181526020016000905b82821015610a0757838290600052602060002090600402016040518060800160405290816000820160009054906101000a900473ffffffffffffffffffffffffffffffffffffffff1673ffffffffffffffffffffffffffffffffffffffff1673ffffffffffffffffffffffffffffffffffffffff168152602001600182015481526020016002820154815260200160038201548152505081526020019060010190610961565b505050509050919050565b60036020528160005260406000208181548110610a2e57600080fd5b9060005260206000209060040201600091509150508060000160009054906101000a900473ffffffffffffffffffffffffffffffffffffffff16908060010154908060020154908060030154905084565b60015481565b6060600460008373ffffffffffffffffffffffffffffffffffffffff1673ffffffffffffffffffffffffffffffffffffffff168152602001908152602001600020805480602002602001604051908101604052809291908181526020016000905b82821015610b8c57838290600052602060002090600402016040518060800160405290816000820160009054906101000a900473ffffffffffffffffffffffffffffffffffffffff1673ffffffffffffffffffffffffffffffffffffffff1673ffffffffffffffffffffffffffffffffffffffff168152602001600182015481526020016002820154815260200160038201548152505081526020019060010190610ae6565b505050509050919050565b6060600060015467ffffffffffffffff811115610bb757610bb6612224565b5b604051908082528060200260200182016040528015610bf057816020015b610bdd611b21565b815260200190600190039081610bd55790505b5090506000600190505b6001548111610e37576002600082815260200190815260200160002060405180610120016040529081600082015481526020016001820160009054906101000a900473ffffffffffffffffffffffffffffffffffffffff1673ffffffffffffffffffffffffffffffffffffffff1673ffffffffffffffffffffffffffffffffffffffff168152602001600282018054610c9290612592565b80601f0160208091040260200160405190810160405280929190818152602001828054610cbe90612592565b8015610d0b5780601f10610ce057610100808354040283529160200191610d0b565b820191906000526020600020905b815481529060010190602001808311610cee57829003601f168201915b50505050508152602001600382018054610d2490612592565b80601f0160208091040260200160405190810160405280929190818152602001828054610d5090612592565b8015610d9d5780601f10610d7257610100808354040283529160200191610d9d565b820191906000526020600020905b815481529060010190602001808311610d8057829003601f168201915b505050505081526020016004820154815260200160058201548152602001600682015481526020016007820160009054906101000a900460ff161515151581526020016007820160019054906101000a900460ff16151515158152505082600183610e0891906128e6565b81518110610e1957610e1861291a565b5b60200260200101819052508080610e2f90612949565b915050610bfa565b508091505090565b60008054906101000a900473ffffffffffffffffffffffffffffffffffffffff1673ffffffffffffffffffffffffffffffffffffffff163373ffffffffffffffffffffffffffffffffffffffff1614610ecd576040517f08c379a0000000000000000000000000000000000000000000000000000000008152600401610ec490612a03565b60405180910390fd5b600073ffffffffffffffffffffffffffffffffffffffff168173ffffffffffffffffffffffffffffffffffffffff1603610f3c576040517f08c379a0000000000000000000000000000000000000000000000000000000008152600401610f3390612a6f565b60405180910390fd5b806000806101000a81548173ffffffffffffffffffffffffffffffffffffffff021916908373ffffffffffffffffffffffffffffffffffffffff16021790555050565b60008211610fc2576040517f08c379a0000000000000000000000000000000000000000000000000000000008152600401610fb990612b01565b60405180910390fd5b60008111611005576040517f08c379a0000000000000000000000000000000000000000000000000000000008152600401610ffc90612b6d565b60405180910390fd5b6001600081548092919061101890612949565b9190505550600060405180610120016040528060015481526020013373ffffffffffffffffffffffffffffffffffffffff1681526020018681526020018581526020018481526020016000815260200162015180846110779190612b8d565b426110829190612bcf565b8152602001600015158152602001600015158152509050806002600060015481526020019081526020016000206000820151816000015560208201518160010160006101000a81548173ffffffffffffffffffffffffffffffffffffffff021916908373ffffffffffffffffffffffffffffffffffffffff16021790555060408201518160020190816111159190612daf565b50606082015181600301908161112b9190612daf565b506080820151816004015560a0820151816005015560c0820151816006015560e08201518160070160006101000a81548160ff0219169083151502179055506101008201518160070160016101000a81548160ff0219169083151502179055509050503373ffffffffffffffffffffffffffffffffffffffff166001547f825fb10f7650ed27414d6f86acdf7d5946927d9b25001f045f1a2435deec02fe87866040516111d9929190612e81565b60405180910390a35050505050565b60006002600083815260200190815260200160002090508060010160009054906101000a900473ffffffffffffffffffffffffffffffffffffffff1673ffffffffffffffffffffffffffffffffffffffff163373ffffffffffffffffffffffffffffffffffffffff1614806112a8575060008054906101000a900473ffffffffffffffffffffffffffffffffffffffff1673ffffffffffffffffffffffffffffffffffffffff163373ffffffffffffffffffffffffffffffffffffffff16145b6112e7576040517f08c379a00000000000000000000000000000000000000000000000000000000081526004016112de90612efd565b60405180910390fd5b8060070160019054906101000a900460ff1615611339576040517f08c379a00000000000000000000000000000000000000000000000000000000081526004016113309061270d565b60405180910390fd5b60018160070160016101000a81548160ff02191690831515021790555060008160040154826005015410159050827fb08312190b5508b59f34a0cda3a5b1010da8272854d7556b9fc6e126c22fe49d826040516113969190612f1d565b60405180910390a2505050565b6113ab611b21565b6000821180156113bd57506001548211155b6113fc576040517f08c379a00000000000000000000000000000000000000000000000000000000081526004016113f390612897565b60405180910390fd5b6002600083815260200190815260200160002060405180610120016040529081600082015481526020016001820160009054906101000a900473ffffffffffffffffffffffffffffffffffffffff1673ffffffffffffffffffffffffffffffffffffffff1673ffffffffffffffffffffffffffffffffffffffff16815260200160028201805461148b90612592565b80601f01602080910402602001604051908101604052809291908181526020018280546114b790612592565b80156115045780601f106114d957610100808354040283529160200191611504565b820191906000526020600020905b8154815290600101906020018083116114e757829003601f168201915b5050505050815260200160038201805461151d90612592565b80601f016020809104026020016040519081016040528092919081815260200182805461154990612592565b80156115965780601f1061156b57610100808354040283529160200191611596565b820191906000526020600020905b81548152906001019060200180831161157957829003601f168201915b505050505081526020016004820154815260200160058201548152602001600682015481526020016007820160009054906101000a900460ff161515151581526020016007820160019054906101000a900460ff1615151515815250509050919050565b60008054906101000a900473ffffffffffffffffffffffffffffffffffffffff1673ffffffffffffffffffffffffffffffffffffffff163373ffffffffffffffffffffffffffffffffffffffff1614611688576040517f08c379a000000000000000000000000000000000000000000000000000000000815260040161167f90612a03565b60405180910390fd5b60008211801561169a57506001548211155b6116d9576040517f08c379a00000000000000000000000000000000000000000000000000000000081526004016116d090612897565b60405180910390fd5b6000600260008481526020019081526020016000209050818160070160006101000a81548160ff021916908315150217905550827fff10e6167effaabc152e07f1245236d1692f5061bf11966e0a07e92f39c19f158360405161173c9190612f1d565b60405180910390a2505050565b60008111801561175b57506001548111155b61179a576040517f08c379a000000000000000000000000000000000000000000000000000000000815260040161179190612897565b60405180910390fd5b60006002600083815260200190815260200160002090508060070160009054906101000a900460ff16611802576040517f08c379a00000000000000000000000000000000000000000000000000000000081526004016117f990612f84565b60405180910390fd5b8060070160019054906101000a900460ff1615611854576040517f08c379a000000000000000000000000000000000000000000000000000000000815260040161184b90612ff0565b60405180910390fd5b8060060154421061189a576040517f08c379a00000000000000000000000000000000000000000000000000000000081526004016118919061305c565b60405180910390fd5b600034116118dd576040517f08c379a00000000000000000000000000000000000000000000000000000000081526004016118d4906130ee565b60405180910390fd5b348160050160008282546118f19190612bcf565b92505081905550600060405180608001604052803373ffffffffffffffffffffffffffffffffffffffff1681526020018481526020013481526020014281525090506003600084815260200190815260200160002081908060018154018082558091505060019003906000526020600020906004020160009091909190915060008201518160000160006101000a81548173ffffffffffffffffffffffffffffffffffffffff021916908373ffffffffffffffffffffffffffffffffffffffff1602179055506020820151816001015560408201518160020155606082015181600301555050600460003373ffffffffffffffffffffffffffffffffffffffff1673ffffffffffffffffffffffffffffffffffffffff16815260200190815260200160002081908060018154018082558091505060019003906000526020600020906004020160009091909190915060008201518160000160006101000a81548173ffffffffffffffffffffffffffffffffffffffff021916908373ffffffffffffffffffffffffffffffffffffffff16021790555060208201518160010155604082015181600201556060820151816003015550503373ffffffffffffffffffffffffffffffffffffffff16837f3dbea1b4ce5f95137fdcac9b1d685825c3d70ace830df1ca5a181d3887add4103442604051611af092919061310e565b60405180910390a3505050565b60008054906101000a900473ffffffffffffffffffffffffffffffffffffffff1681565b60405180610120016040528060008152602001600073ffffffffffffffffffffffffffffffffffffffff16815260200160608152602001606081526020016000815260200160008152602001600081526020016000151581526020016000151581525090565b6000604051905090565b600080fd5b600080fd5b6000819050919050565b611bae81611b9b565b8114611bb957600080fd5b50565b600081359050611bcb81611ba5565b92915050565b600060208284031215611be757611be6611b91565b5b6000611bf584828501611bbc565b91505092915050565b611c0781611b9b565b82525050565b600073ffffffffffffffffffffffffffffffffffffffff82169050919050565b6000611c3882611c0d565b9050919050565b611c4881611c2d565b82525050565b600081519050919050565b600082825260208201905092915050565b60005b83811015611c88578082015181840152602081019050611c6d565b60008484015250505050565b6000601f19601f8301169050919050565b6000611cb082611c4e565b611cba8185611c59565b9350611cca818560208601611c6a565b611cd381611c94565b840191505092915050565b60008115159050919050565b611cf381611cde565b82525050565b600061012082019050611d0f600083018c611bfe565b611d1c602083018b611c3f565b8181036040830152611d2e818a611ca5565b90508181036060830152611d428189611ca5565b9050611d516080830188611bfe565b611d5e60a0830187611bfe565b611d6b60c0830186611bfe565b611d7860e0830185611cea565b611d86610100830184611cea565b9a9950505050505050505050565b611d9d81611c2d565b8114611da857600080fd5b50565b600081359050611dba81611d94565b92915050565b60008060408385031215611dd757611dd6611b91565b5b6000611de585828601611dab565b9250506020611df685828601611bbc565b9150509250929050565b6000608082019050611e156000830187611c3f565b611e226020830186611bfe565b611e2f6040830185611bfe565b611e3c6060830184611bfe565b95945050505050565b600081519050919050565b600082825260208201905092915050565b6000819050602082019050919050565b611e7a81611c2d565b82525050565b611e8981611b9b565b82525050565b608082016000820151611ea56000850182611e71565b506020820151611eb86020850182611e80565b506040820151611ecb6040850182611e80565b506060820151611ede6060850182611e80565b50505050565b6000611ef08383611e8f565b60808301905092915050565b6000602082019050919050565b6000611f1482611e45565b611f1e8185611e50565b9350611f2983611e61565b8060005b83811015611f5a578151611f418882611ee4565b9750611f4c83611efc565b925050600181019050611f2d565b5085935050505092915050565b60006020820190508181036000830152611f818184611f09565b905092915050565b60008060408385031215611fa057611f9f611b91565b5b6000611fae85828601611bbc565b9250506020611fbf85828601611bbc565b9150509250929050565b6000602082019050611fde6000830184611bfe565b92915050565b600060208284031215611ffa57611ff9611b91565b5b600061200884828501611dab565b91505092915050565b600081519050919050565b600082825260208201905092915050565b6000819050602082019050919050565b600082825260208201905092915050565b600061205982611c4e565b612063818561203d565b9350612073818560208601611c6a565b61207c81611c94565b840191505092915050565b61209081611cde565b82525050565b6000610120830160008301516120af6000860182611e80565b5060208301516120c26020860182611e71565b50604083015184820360408601526120da828261204e565b915050606083015184820360608601526120f4828261204e565b91505060808301516121096080860182611e80565b5060a083015161211c60a0860182611e80565b5060c083015161212f60c0860182611e80565b5060e083015161214260e0860182612087565b50610100830151612157610100860182612087565b508091505092915050565b600061216e8383612096565b905092915050565b6000602082019050919050565b600061218e82612011565b612198818561201c565b9350836020820285016121aa8561202d565b8060005b858110156121e657848403895281516121c78582612162565b94506121d283612176565b925060208a019950506001810190506121ae565b50829750879550505050505092915050565b600060208201905081810360008301526122128184612183565b905092915050565b600080fd5b600080fd5b7f4e487b7100000000000000000000000000000000000000000000000000000000600052604160045260246000fd5b61225c82611c94565b810181811067ffffffffffffffff8211171561227b5761227a612224565b5b80604052505050565b600061228e611b87565b905061229a8282612253565b919050565b600067ffffffffffffffff8211156122ba576122b9612224565b5b6122c382611c94565b9050602081019050919050565b82818337600083830152505050565b60006122f26122ed8461229f565b612284565b90508281526020810184848401111561230e5761230d61221f565b5b6123198482856122d0565b509392505050565b600082601f8301126123365761233561221a565b5b81356123468482602086016122df565b91505092915050565b6000806000806080858703121561236957612368611b91565b5b600085013567ffffffffffffffff81111561238757612386611b96565b5b61239387828801612321565b945050602085013567ffffffffffffffff8111156123b4576123b3611b96565b5b6123c087828801612321565b93505060406123d187828801611bbc565b92505060606123e287828801611bbc565b91505092959194509250565b6000610120830160008301516124076000860182611e80565b50602083015161241a6020860182611e71565b5060408301518482036040860152612432828261204e565b9150506060830151848203606086015261244c828261204e565b91505060808301516124616080860182611e80565b5060a083015161247460a0860182611e80565b5060c083015161248760c0860182611e80565b5060e083015161249a60e0860182612087565b506101008301516124af610100860182612087565b508091505092915050565b600060208201905081810360008301526124d481846123ee565b905092915050565b6124e581611cde565b81146124f057600080fd5b50565b600081359050612502816124dc565b92915050565b6000806040838503121561251f5761251e611b91565b5b600061252d85828601611bbc565b925050602061253e858286016124f3565b9150509250929050565b600060208201905061255d6000830184611c3f565b92915050565b7f4e487b7100000000000000000000000000000000000000000000000000000000600052602260045260246000fd5b600060028204905060018216806125aa57607f821691505b6020821081036125bd576125bc612563565b5b50919050565b7f4f6e6c792063616d706169676e206f776e65722063616e20706572666f726d2060008201527f7468697320616374696f6e000000000000000000000000000000000000000000602082015250565b600061261f602b83611c59565b915061262a826125c3565b604082019050919050565b6000602082019050818103600083015261264e81612612565b9050919050565b7f43616d706169676e206973206e6f7420617070726f7665640000000000000000600082015250565b600061268b601883611c59565b915061269682612655565b602082019050919050565b600060208201905081810360008301526126ba8161267e565b9050919050565b7f43616d706169676e20697320616c726561647920636c6f736564000000000000600082015250565b60006126f7601a83611c59565b9150612702826126c1565b602082019050919050565b60006020820190508181036000830152612726816126ea565b9050919050565b7f4e6f2066756e647320746f207769746864726177000000000000000000000000600082015250565b6000612763601483611c59565b915061276e8261272d565b602082019050919050565b6000602082019050818103600083015261279281612756565b9050919050565b600081905092915050565b50565b60006127b4600083612799565b91506127bf826127a4565b600082019050919050565b60006127d5826127a7565b9150819050919050565b7f5472616e73666572206661696c65640000000000000000000000000000000000600082015250565b6000612815600f83611c59565b9150612820826127df565b602082019050919050565b6000602082019050818103600083015261284481612808565b9050919050565b7f496e76616c69642063616d706169676e20494400000000000000000000000000600082015250565b6000612881601383611c59565b915061288c8261284b565b602082019050919050565b600060208201905081810360008301526128b081612874565b9050919050565b7f4e487b7100000000000000000000000000000000000000000000000000000000600052601160045260246000fd5b60006128f182611b9b565b91506128fc83611b9b565b9250828203905081811115612914576129136128b7565b5b92915050565b7f4e487b7100000000000000000000000000000000000000000000000000000000600052603260045260246000fd5b600061295482611b9b565b91507fffffffffffffffffffffffffffffffffffffffffffffffffffffffffffffffff8203612986576129856128b7565b5b600182019050919050565b7f4f6e6c792061646d696e2063616e20706572666f726d2074686973206163746960008201527f6f6e000000000000000000000000000000000000000000000000000000000000602082015250565b60006129ed602283611c59565b91506129f882612991565b604082019050919050565b60006020820190508181036000830152612a1c816129e0565b9050919050565b7f496e76616c696420616464726573730000000000000000000000000000000000600082015250565b6000612a59600f83611c59565b9150612a6482612a23565b602082019050919050565b60006020820190508181036000830152612a8881612a4c565b9050919050565b7f46756e64696e6720676f616c206d75737420626520677265617465722074686160008201527f6e20300000000000000000000000000000000000000000000000000000000000602082015250565b6000612aeb602383611c59565b9150612af682612a8f565b604082019050919050565b60006020820190508181036000830152612b1a81612ade565b9050919050565b7f4475726174696f6e206d7573742062652067726561746572207468616e203000600082015250565b6000612b57601f83611c59565b9150612b6282612b21565b602082019050919050565b60006020820190508181036000830152612b8681612b4a565b9050919050565b6000612b9882611b9b565b9150612ba383611b9b565b9250828202612bb181611b9b565b91508282048414831517612bc857612bc76128b7565b5b5092915050565b6000612bda82611b9b565b9150612be583611b9b565b9250828201905080821115612bfd57612bfc6128b7565b5b92915050565b60008190508160005260206000209050919050565b60006020601f8301049050919050565b600082821b905092915050565b600060088302612c657fffffffffffffffffffffffffffffffffffffffffffffffffffffffffffffffff82612c28565b612c6f8683612c28565b95508019841693508086168417925050509392505050565b6000819050919050565b6000612cac612ca7612ca284611b9b565b612c87565b611b9b565b9050919050565b6000819050919050565b612cc683612c91565b612cda612cd282612cb3565b848454612c35565b825550505050565b600090565b612cef612ce2565b612cfa818484612cbd565b505050565b5b81811015612d1e57612d13600082612ce7565b600181019050612d00565b5050565b601f821115612d6357612d3481612c03565b612d3d84612c18565b81016020851015612d4c578190505b612d60612d5885612c18565b830182612cff565b50505b505050565b600082821c905092915050565b6000612d8660001984600802612d68565b1980831691505092915050565b6000612d9f8383612d75565b9150826002028217905092915050565b612db882611c4e565b67ffffffffffffffff811115612dd157612dd0612224565b5b612ddb8254612592565b612de6828285612d22565b600060209050601f831160018114612e195760008415612e07578287015190505b612e118582612d93565b865550612e79565b601f198416612e2786612c03565b60005b82811015612e4f57848901518255600182019150602085019450602081019050612e2a565b86831015612e6c5784890151612e68601f891682612d75565b8355505b6001600288020188555050505b505050505050565b60006040820190508181036000830152612e9b8185611ca5565b9050612eaa6020830184611bfe565b9392505050565b7f4e6f7420617574686f72697a6564000000000000000000000000000000000000600082015250565b6000612ee7600e83611c59565b9150612ef282612eb1565b602082019050919050565b60006020820190508181036000830152612f1681612eda565b9050919050565b6000602082019050612f326000830184611cea565b92915050565b7f43616d706169676e206973206e6f7420617070726f7665642079657400000000600082015250565b6000612f6e601c83611c59565b9150612f7982612f38565b602082019050919050565b60006020820190508181036000830152612f9d81612f61565b9050919050565b7f43616d706169676e20697320636c6f7365640000000000000000000000000000600082015250565b6000612fda601283611c59565b9150612fe582612fa4565b602082019050919050565b6000602082019050818103600083015261300981612fcd565b9050919050565b7f43616d706169676e20646561646c696e65206861732070617373656400000000600082015250565b6000613046601c83611c59565b915061305182613010565b602082019050919050565b6000602082019050818103600083015261307581613039565b9050919050565b7f446f6e6174696f6e20616d6f756e74206d75737420626520677265617465722060008201527f7468616e20300000000000000000000000000000000000000000000000000000602082015250565b60006130d8602683611c59565b91506130e38261307c565b604082019050919050565b60006020820190508181036000830152613107816130cb565b9050919050565b60006040820190506131236000830185611bfe565b6131306020830184611bfe565b939250505056fea2646970667358221220f86085f8c059cac16c5385a7da1975f53a3f138a5d752687a1c2b977f091566e64736f6c63430008130033",
  "linkReferences": {},
  "deployedLinkReferences": {}
}